:1000000012C019C018C017C016C015C014C013C044
:1000100012C011C010C00FC00EC00DC00CC00BC06C
:100020000AC009C008C011241FBECFE5D4E0DEBF5E
:10003000CDBF02D037C0E4CF8EE187BB8EE784BB53
:100040004CE029E130E052E072E160E183B393B328
:10005000947080FF0BC09430A9F448BB88E99AE300
:10006000F9013197F1F70197D9F716C09430B1F43F
:1000700048BB88E99AE3F9013197F1F70197D9F77D
:1000800068BBE4CF992311F748BB88E99AE3F901EB
:100090003197F1F70197D9F758BBD8CF9923B1F62B
:0800A00078BBD4CFF894FFCF28
:00000001FF
